:020000040000FA
:1000000068FAFF1F9F010000AB010000AD01000076
:1000100000000000000000000000000000000000E0
:10002000000000000000000000000000AF01000020
:100030000000000000000000B1010000B30100005A
:10004000B5010000B5010000B5010000B5010000D8
:10005000B5010000B5010000B5010000B5010000C8
:100060004910000061100000AD190000C519000022
:10007000E11C0000D51D0000E51D0000A5040000E6
:1000800075040000E90B0000010C0000190C0000D1
:10009000911900008D040000111900002D190000B5
:1000A000C1140000E5140000B5010000B501000016
:1000B000551F000065190000B5010000B5010000E2
:1000C00000F002F800F03EF80CA030C80838241800
:1000D0002D18A246671EAB4654465D46AC4201D180
:1000E00000F030F87E460F3E0FCCB6460126334274
:1000F00000D0FB1AA246AB46334318473C2700000A
:100100005C270000103A02D378C878C1FAD85207A9
:1001100001D330C830C101D504680C6070470000BD
:100120000023002400250026103A01D378C1FBD813
:10013000520700D330C100D50B6070471FB51FBDFB
:1001400010B510BD00F064F91146FFF7F7FF02F09B
:1001500049FA00F07CF903B4FFF7F2FF03BC00F0AA
:1001600083F9000070B505460C46164602E00FCC38
:100170000FC5103E102EFAD2082E02D303CC03C5B1
:10018000083E042E07D301CC01C5361F03E02178B9
:100190002970641C6D1C761EF9D270BD7047094829
:1001A00080470948804709480047FEE7FEE7FEE729
:1001B000FEE7FEE7FEE7000005480649044A064B55
:1001C00070470000651C00009D010000C100000098
:1001D00068F6FF1F68FAFF1F68F6FF1FF8B5042ACC
:1001E0002CD3830712D00B78491C0370401C521E7D
:1001F00083070BD00B78491C0370401C521E8307E9
:1002000004D00B78491C0370401C521E8B079B0FB7
:1002100005D0C91ADF002023DE1B08C90AE0FFF75A
:10022000A1FFF8BD1D4608C9FD401C46B4402C4343
:1002300010C0121F042AF5D2F308C91A521EF0D4B6
:100240000B78491C0370401C521EEAD40B78491CE1
:100250000370401C012AE4D409780170F8BD01E064
:1002600004C0091F0429FBD28B0701D50280801C22
:10027000C90700D00270704700290BD0C30702D015
:100280000270401C491E022904D3830702D5028054
:10029000801C891EE3E70022EEE70022DFE7002250
:1002A00003098B422CD3030A8B4211D300239C46B3
:1002B0004EE003460B433CD4002243088B4231D32B
:1002C00003098B421CD3030A8B4201D394463FE0BF
:1002D000C3098B4201D3CB01C01A524183098B421F
:1002E00001D38B01C01A524143098B4201D34B0108
:1002F000C01A524103098B4201D30B01C01A52416B
:10030000C3088B4201D3CB00C01A524183088B42F1
:1003100001D38B00C01A524143088B4201D34B00DA
:10032000C01A5241411A00D201465241104670474C
:100330005DE0CA0F00D04942031000D34042534051
:1003400000229C4603098B422DD3030A8B4212D311
:10035000FC22890112BA030A8B420CD38901921143
:100360008B4208D3890192118B4204D389013AD080
:10037000921100E08909C3098B4201D3CB01C01A55
:10038000524183098B4201D38B01C01A5241430968
:100390008B4201D34B01C01A524103098B4201D356
:1003A0000B01C01A5241C3088B4201D3CB00C01AC3
:1003B000524183088B4201D38B00C01A5241D9D2DB
:1003C00043088B4201D34B00C01A5241411A00D25C
:1003D0000146634652415B10104601D34042002B58
:1003E00000D54942704763465B1000D3404201B5D7
:1003F0000020C046C04602BD704770477047704736
:10040000FFFFFFFFFFFFFFFFFFFFFFFFFFFFFEFEFE
:10041000754600F025F8AE46050069465346C0080B
:10042000C000854618B020B5FFF7C6FE60BC0027A7
:100430004908B6460026C0C5C0C5C0C5C0C5C0C5B0
:10044000C0C5C0C5C0C5403D49008D46704710B508
:100450000446C046C0462046FFF77DFE10BD0000A2
:100460000048704708F6FF1F01491820ABBEFEE7A1
:100470002600020010B504480068002802D0024996
:100480000868804710BD000000F0FF1F10B5044849
:100490004068002802D002494868804710BD00002B
:1004A00000F0FF1F10B504480068002802D0024980
:1004B0000868804710BD000008F0FF1F10B500F06D
:1004C000C5F900F013FB01F0BFF900F009FD00F0E1
:1004D000C7F901F009FA10BD10B5024800F04EF856
:1004E00010BD0000ACF3FF1F70B504460D46294651
:1004F000204600F0A3F970BD10B500F075F900209A
:1005000006490870632048704B21C9000348801CCD
:10051000FFF7C1FE00200249887610BDACF3FF1F33
:10052000ECF5FF1F10B506480078012806D100F051
:100530009BF9002802D1034801F0F8FD10BD00002E
:100540008AF0FF1FACF3FF1F10B50B24240400BF7B
:100550002046641E0028FBD101F0BCFE064908704D
:1005600008460078012806D101E001F05FFD00F0A7
:100570007BF90028F9D010BD8AF0FF1FF0B587B0D5
:1005800005460020039004900590069000240190F9
:10059000029000266978481C6421FFF78AFE2878BB
:1005A000814201D107B0F0BDCBE06978481C6421DD
:1005B000FFF77FFE6970687806225043AA1C8118F5
:1005C000062201A8FFF70AFE002003900490059080
:1005D0000690792003A90855601CC4B26A2008550A
:1005E000601CC4B202200855601CC4B2002008552B
:1005F000601CC4B2684600790855601CC4B26846E5
:100600004079702108400011030001F0B7FC071A7F
:100610000509190D11151900012003A9085514E049
:10062000022003A9085510E0042003A908550CE096
:10063000052003A9085508E0062003A9085504E091
:1006400000BF002003A9085500BF00BF601CC4B252
:10065000684640790007000F030001F08FFC0A2C68
:100660000E1216060A1A1E22262B042003A908556C
:1006700025E0052003A9085521E0012003A908551C
:100680001DE0022003A9085519E0032003A908551D
:1006900015E0062003A9085511E0072003A9085515
:1006A0000DE0082003A9085509E00126042003A94C
:1006B000085504E000BF002003A9085500BF00BF93
:1006C000601CC4B26846007A03A90855601CC4B215
:1006D0006846407A0855601CC4B26846807908555F
:1006E000601CC4B26846C07908556846C07BC01D0E
:1006F000C1B26846C173601CC4B26A2003A9085520
:10070000601CC4B26A2008556846C07B801CC1B218
:100710006846C173601CC1B203A8FFF7E5FE002E56
:100720000FD00D4F00BF3846791E8FB20028FAD186
:10073000052069468874601CC1B203A8FFF7D4FE87
:1007400000266978481C6421FFF7B3FD28788142B0
:1007500000D02AE700BF25E7FF0200000A484069F1
:10076000012109048843084948610846806901213C
:1007700009048843044988610448C06801210904C8
:1007800008430249C860704740F00F4000900440A1
:1007900014494969012252041143124A5161114618
:1007A00089680122520411430E4A91601146496939
:1007B000120611430B4A5161114649681206114352
:1007C000084A51600B20000300BF0146401E00296B
:1007D000FBD104494968012252041143014A516086
:1007E0007047000040F00F401FB5002000900190BE
:1007F00002900390FFF7CCFFFFF7B0FF002168469F
:10080000C18110218180008804218843011D684630
:1008100001800088022188430146684601800088E3
:1008200040084000401C69460880034800F032FC44
:10083000092000F0AFF91FBD0070064070B50446F6
:100840000D462946204600F045F970BD10B5FFF76A
:1008500053FE10BD10B5FFF765FEFFF73DFE10BD5E
:1008600010B5FFF771FE10BD02480069C003C00F4C
:100870007047000040F00F4096201149087000BFFB
:100880000F480078C007C00F0028F9D020200D497C
:1008900048701820087000BF0A48007910210840ED
:1008A0000128F9D000BF07480079402108400028FE
:1008B000F9D0880404494862002002494870704712
:1008C0000050064000400640008004400148407847
:1008D0007047000088F0FF1F014948707047000012
:1008E00088F0FF1F70B504460D462946204600F0EB
:1008F000B7F870BD014800787047000088F0FF1F0E
:1009000010B500F0A7F810BD514840690121090653
:1009100008434F49486108464068012109060843D9
:100920004B4948604A48403840690121490608431C
:100930004749403948610846806801214906084313
:100940004349403988600846406901218906884347
:100950003F4940394861084680690121890688433A
:100960003B4940398861084640690121C9068843EE
:10097000374940394861084680690121C9068843E2
:100980003349403988610846406901210907084315
:100990002F4940394861084640680121090708434A
:1009A0002B494039486008464069012149070843FE
:1009B00027494039486108468068012149070843B2
:1009C00023494039886008464069012189078843E6
:1009D0001F494039486108468069012189078843D9
:1009E0001B494039886108464069C90408431849D1
:1009F0004039486108464068C904084314494039F1
:100A0000486008464069022108431149403948615D
:100A100008468068022108430D49403988600C4827
:100A20004069891508430A49486108468068891564
:100A30000843074988600846406909150843044986
:100A400048610846406809150843014948607047F5
:100A500040F00F4010B500F04DF8FFF755FF10BD06
:100A600070B504460D460026012000F015F8294611
:100A7000204600F07BF8044E00BF3046761E00286A
:100A8000FBD100F009F870BDFF020000014A1070B0
:100A90005170704788F0FF1F002807D00749496848
:100AA000012252071143054A516006E00349896853
:100AB000012252071143014A9160704700F00F4034
:100AC00010B5FFF703FF10BD10B504462046FFF731
:100AD00003FF10BD70B504460D4629462046FFF7BA
:100AE00001FF70BD10B5FFF705FF10BD10B5FFF792
:100AF00007FF10BD0EB51A48C06880210843184989
:100B0000C860002000900190029068460078102193
:100B10008843411868460170007802218843811C8F
:100B2000684601700021C170407804218843011D8E
:100B300068464170407808218843411868464170F2
:100B4000407820218843203069464870054801904C
:100B50004B20C0010290044801F04CF90EBD00008A
:100B600000800440002D310100A0064070B504460D
:100B70000D460026002C01D0002D00D170BD04E0F0
:100B8000A05D01F0D9F9701CC6B2AE42F8DB00BF1F
:100B9000F4E7000041B2CB06DB0E01229A40064B7F
:100BA0001A6000BF41B2CB06DB0E01229A40024B15
:100BB000803B1A6000BF704700E200E041B2CB0604
:100BC000DB0E01229A40064B1A6000BF41B2CB06F1
:100BD000DB0E01229A40034B1A6000BF70470000F1
:100BE00080E200E000E100E010B504480068002861
:100BF00002D002490868804710BD00008CF0FF1F3A
:100C000010B504484068002802D00249486880476F
:100C100010BD00008CF0FF1F10B50448806800284C
:100C200002D002498868804710BD00008CF0FF1F89
:100C30007FB504460D467C480068A04206D17B483B
:100C40004069202108437949486110E078480068EC
:100C5000A04206D175484069402108437349486164
:100C600005E0724840698021084370494861039853
:100C70008006800E042815D1E90020460C3040582B
:100C8000EA0021460C318850E90020460C304058DB
:100C900003990906890F89000843EA0021460C31AF
:100CA000885096E003988006800E052817D1E90049
:100CB00020460C30405810210843EA0021460C31F0
:100CC0008850E90020460C30405803998905890F67
:100CD00089000843EA0021460C31885079E00398E6
:100CE0008006800E012817D1E90020460C304058BC
:100CF00020210843EA0021460C318850E9002046B3
:100D00000C30405803990905890F89000843EA000F
:100D100021460C3188505CE003988006800E022842
:100D200011D12068202108432060E90020460C30C2
:100D3000405803990905890F89000843EA002146B4
:100D40000C31885045E003988006800E03280FD1AF
:100D5000E90020460C30405803990905890F8900A5
:100D6000302211430843EA0021460C31885030E01C
:100D700003988006800E06282BD1E90020460C300F
:100D8000405803990906890F89000843EA00214663
:100D90000C31885003988004800F02280AD1E900A2
:100DA00020460C30405810218843EA0021460C317F
:100DB00088500EE003988004800F012809D1E900D3
:100DC00020460C30405810210843EA0021460C31DF
:100DD000885003984004C00F00281CD0E90020462A
:100DE0000C30405840210843EA0021460C3188501D
:100DF0000D480068A04203D11120FFF7DFFE0AE092
:100E00000B480068A04203D11220FFF7D7FE02E092
:100E10001320FFF7D3FE68460189EA0020460C3014
:100E2000101841607FBD00000CF0FF1F00800440DF
:100E300010F0FF1F00B591B0302105A8FFF72DFA83
:100E400000200390049001900290184968460183A5
:100E50000121017504214175012181770021C175AE
:100E60001348006904210843114908610298800968
:100E70008001401C029003218902029888430121CD
:100E8000C902401802900949491C68468180012125
:100E90000848029B019AFFF7CBFE05A9054800F020
:100EA00029F801200449087011B000BDD3300000BA
:100EB0000080044000A003405DF0FF1F10B5044611
:100EC00005480078012806D17D20604382B20121C7
:100ED000024800F08DF810BD5DF0FF1F00A0034038
:100EE00010B5FFF7A7FF10BD10B504462046FFF769
:100EF000E5FF10BD70B504460D4639480068A042B4
:100F000006D138484069202108433649486110E03D
:100F100035480068A04206D1324840694021084364
:100F20003049486105E02F484069802108432D4938
:100F30004861002020602D480068A04228D1606DE3
:100F4000A97A08436065286960662889E064E87AC0
:100F5000A065287BE065687B2066A88AA066A87DDE
:100F6000E066E87D2067A87E6067288BA067A88B75
:100F7000E067A97F88200151298C842001518C20B1
:100F8000696A0151698D94200151A98D9820015100
:100F9000A888A060E88860602878C0006978084365
:100FA000A97849010843E978890108432168084381
:100FB0002060E878002812D009480068A04203D1D8
:100FC0001120FFF7FBFD0AE007480068A04203D1AB
:100FD0001220FFF7F3FD02E01320FFF7EFFD70BDD5
:100FE0000CF0FF1F0080044010F0FF1F14F0FF1FE3
:100FF00010B5CC0003460C33E3185A60114B9842ED
:101000001FD1436DDB07DB0F002B1AD0022904DA56
:10101000436E2024234343660CE0042905DA436E23
:10102000012464032343436604E0436E0124640502
:101030002343436698231B580124640223439824C6
:10104000235010BD00A0034010B5044800680028DC
:1010500002D002490868804710BD000018F0FF1F49
:1010600010B50221054800F00DF805484068002839
:1010700002D003494868804710BD00000070064058
:1010800018F0FF1FC2780A43C27070470146C87843
:101090007047000070B506460C464448006886421A
:1010A00007D1434840690121090408434049486188
:1010B00006E03F4840690121490408433C49486132
:1010C000A088707000BFE188304600F069F9207B8D
:1010D000B0716089FE210840F071E189304600F06E
:1010E0005BF900252078C006C00F002801D08020C1
:1010F000054320788006C00F002801D0402005431A
:1011000020784006C00F002801D0082005437079E0
:1011100028437071002520780006C00F002801D0F8
:10112000802005432088C005C00F002801D0402042
:10113000054320888005C00F002801D020200543EA
:1011400020880005C00F002801D00120054335721A
:10115000002520788007C00F002810D040200543CC
:1011600012480068864203D10820FFF727FD06E0F9
:1011700010480068864202D10920FFF71FFD207841
:101180000007C00F002801D0022005432078400747
:10119000C00F002801D0202005432078C007C00FD1
:1011A000002801D080200543B57070BD20F0FF1FDE
:1011B0000080044024F0FF1F10B50446A0784021B1
:1011C0008843A07007480068844203D10820FFF7D5
:1011D000E1FC06E004480068844202D10920FFF7E0
:1011E000D9FC10BD20F0FF1F24F0FF1F10B50446EE
:1011F000A07840210843A07007480068844203D1CA
:101200000820FFF7DBFC06E004480068844202D1B6
:101210000920FFF7D3FC10BD20F0FF1F24F0FF1FB3
:101220000146C878202210407047FFB581B00F46B4
:101230001546019800F0C0F8064601203843C1B2B7
:10124000019800F0F9F8064600222946019800F0BE
:1012500051F8002E1BD100240EE02919002201981C
:1012600000F048F80646002E05D0019800F0C2F8BC
:10127000304605B0F0BD641C0498401EA042ECD876
:1012800029190122019800F035F8064604E001987A
:1012900000F0B0F83046ECE7019800F0ABF80646F5
:1012A0003046E6E7FFB581B00D461746019800F0DD
:1012B00083F80646E9B2019800F0BEF80646002E13
:1012C00012D100240DE0395D019800F0B5F8064612
:1012D000002E05D0019800F08DF8304605B0F0BD25
:1012E000641C04988442EED3019800F083F806460B
:1012F0003046F3E7F7B504460F460025002600E028
:101300006D1C2046FFF7C2FE80210840802802D0D5
:101310001B488542F4D31A48854203D30120064373
:101320003046FEBD204600F02DF80298002806D079
:1013300000BFA07808210843A07000BF02E020464B
:1013400000F025F800BF20793870002500E06D1C02
:101350002046FFF79BFE02210840022802D00848E1
:101360008542F4D30648854203D302200643304623
:10137000D7E702212046FFF785FE3046D1E700007F
:10138000400D03008178102291438170704781786D
:101390000822914381707047C1720A1282727047AD
:1013A00001704279D208D200427142798B059B0FBD
:1013B0001A4342717047000070B5044600250026AC
:1013C000204600F033F8A07820210843A07000E008
:1013D0006D1C2046FFF724FF002802D104488542F7
:1013E000F6D30348854201D110200643304670BD34
:1013F000400D030070B5044600250026A07820218A
:101400008843A07000E06D1C2046FFF709FF00280C
:1014100002D005488542F6D30348854201D12020F9
:101420000643304670BD0000400D03008178102255
:101430001143817070470000F8B505460E46002440
:10144000002700E0641C2846FFF720FE80210840AA
:10145000802802D019488442F4D31848844203D328
:10146000012007433846F8BD2846FFF7DFFF00BFDD
:101470002E7100BF002400E0641C2846FFF706FE22
:1014800002210840022802D00C488442F4D30B48C1
:10149000844203D3022007433846E4E7022128466A
:1014A000FFF7F0FD2846FFF7F1FDC007C00F002849
:1014B00001D0042007433846D5E70000400D030063
:1014C00010B5064CA06804210843A06004480068D9
:1014D000002802D002490868804710BD00900740EC
:1014E00028F0FF1F10B5064CA06804210843A06037
:1014F00004484068002802D002494868804710BD6F
:1015000000A0074028F0FF1F10B500F0BDF800F064
:1015100003F800F0A9F810BD7FB51C4A11685068A7
:10152000926803920191029005250B24240400BFC8
:101530002046641E0028FBD1002409E0600001ABB6
:10154000C01842786000195C032000F02DF9641C7B
:10155000AC42F3D3002416E0600001A9085C002827
:1015600009D1600001ABC01842786000195C03200B
:1015700000F01AF906E0600001AA115C6A46032037
:1015800000F0B8F8641CAC42E6D37FBD2C28000004
:101590000748406901214903084305494861084655
:1015A0004068012149030843014948607047000031
:1015B00000F00F402A4840680221884328494860CB
:1015C000284840698915084326494861084640680B
:1015D000891508432349486008464069491508436E
:1015E0002049486108468068491508431D498860BC
:1015F00008464069802108431A4948610846406806
:101600008021084317494860084640690121890440
:101610000843144948610846406801218904084389
:1016200010494860084640690121C90408430D4932
:101630004861084640680121C904084309494860D7
:101640000846406901210904884306494861084663
:1016500080690121090488430249886170470000BC
:101660000080044000F00F40064840690121490213
:101670000843044948610846406849150843014940
:101680004860704700F00F400EB5002000900190B8
:101690000290FFF78FFF1448019014480290022136
:1016A00000988843801C00900821009888430830E7
:1016B000009020210098884320300090102100984D
:1016C00088431030009089010098884340180090AA
:1016D000490000988843401800906946044800F08B
:1016E00083F9FFF755FF0EBD40420F00002D310179
:1016F00000600740F8B506460F4615460024204610
:101700008030C4B2B007400E0019C4B2F806C00E53
:101710000019C4B2502000F0DDFA21488068012190
:10172000490308431E4988601E4800F057F900BF6E
:101730001C4800F03AFA0028FAD02146194800F077
:101740008EFA00BF174800F02BFA0028FAD015488F
:1017500000F035FA2870134841780822914341700F
:1017600000BF00BF0F4800F020FA0028FAD0FF2188
:101770000C4800F074FA00BF0A4800F011FA002883
:10178000FAD0084800F01BFA2870A02000F0A2FA56
:101790000348406801214903084301494860F8BDF6
:1017A00000F00F4000600740F8B505460E461746AA
:1017B000002400BFA807400E0419F006C00E00194F
:1017C000C4B2502000F086FA1D4880680121490308
:1017D00008431B4988601B4800F000F900BF194806
:1017E00000F0E3F90028FAD02146164800F037FA55
:1017F00000BF144800F0D4F90028FAD000BF114807
:10180000407900BF0F4800F0D0F90028FAD03946DF
:101810000C4800F024FA00BF0A4800F0C1F9002883
:10182000FAD000BF07484079A02000F053FA0448DE
:10183000406801214903084301494860F8BD0000A0
:1018400000F00F400060074010B5FFF75DFE10BDCF
:1018500010B500F001F810BD10B500F041F810BD52
:1018600001211C4A11701C494969202211431A4A5E
:1018700051611146496820221143174A51601748A7
:1018800000BF0146401E0029FBD10121114A117001
:10189000114949690122D20491430F4A516111460D
:1018A00089690122D20491430B4A91611146496929
:1018B00040221143084A51611146496840221143B0
:1018C000054A5160054800BF0146401E0029FBD172
:1018D000704700005CF0FF1F40F00F4000350C0027
:1018E00010B5FFF7BDFF10BD10B5FFF7B1FF10BD7C
:1018F00010B5FFF7E5F8012808D1FFF7F3F8044623
:101900002046FFF7F1FA0020FFF7DEF810BD0000D7
:1019100010B5002000F018F803480068002802D035
:1019200001490868804710BD40F0FF1F10B5012035
:1019300000F00AF803484068002802D001494868CE
:10194000804710BD40F0FF1F054902018918C96892
:1019500001221143024A0301D218D16070470000EE
:101960000071034010B504480068002802D0024905
:101970000868804710BD000048F0FF1F034800685A
:1019800080210843014908607047000000D00340EF
:1019900010B5FFF7F3FF04480068002802D00249A1
:1019A0000868804710BD00004CF0FF1F10B50448C8
:1019B0000068002802D002490868804710BD000076
:1019C00050F0FF1F10B504484068002802D00249BB
:1019D0004868804710BD000050F0FF1F4178082282
:1019E000114341707047000070B504460D466A48C7
:1019F000844207D169484069012189040843674945
:101A0000486106E0654840690121C904084363490B
:101A100048612878C007C00F00280FD000BF207889
:101A200080210843207000BF5B48844203D10A2014
:101A3000FFF7C4F802E00B20FFF7C0F82878400752
:101A4000C00F00280FD000BF20782021084320704D
:101A500000BF5148844203D10A20FFF7AFF802E0EB
:101A60000B20FFF7ABF828780007C00F002806D03E
:101A700000BF207810210843207000BF06E000BF9F
:101A8000207810218843207000BF00BF2878C0064E
:101A9000C00F002804D00121204600F0D4F803E054
:101AA0000021204600F0CFF828788006C00F0028DB
:101AB00004D00121204600F0BAF803E000212046BE
:101AC00000F0B5F828780006C00F002806D000BF47
:101AD000207801210843207000BF00BF2888C0057E
:101AE000C00F002806D000BF6078802108436070D6
:101AF00000BF00BF28888005C00F002802D0204604
:101B000000F058F828784006C00F002808D000BF21
:101B1000207802210843207000BF204600F04AF8D8
:101B200028880005C00F002806D000BF607801217A
:101B30000843607000BF00BF28884005C00F002820
:101B400006D000BF607808210843607000BF00BF66
:101B50002888C004C00F002806D000BF607802218A
:101B60000843607000BF00BF28780007C00F00283E
:101B700004D020466A68A96800F024F82878800715
:101B8000C00F002806D000BF2078402108432070F5
:101B900000BF00BF70BD000000600740008004402F
:101BA0000146C8788022104070470146C87820223C
:101BB0001040704741781022114341707047014630
:101BC00048797047F7B582B006460F463846049903
:101BD000FEF765FB019000200090002515E0002431
:101BE0000AE0691C0198C840611C884202D80120A3
:101BF000009003E0601CC4B2072CF2DD00BF009827
:101C0000002800D003E0681CC5B2082DE7DD00BF46
:101C1000082C00DB0724082D00DD08252001702199
:101C200008402907090F0843B07005B0F0BD00292E
:101C300004D0027804231A43027003E002780423DC
:101C40009A4302707047002904D0027808231A438F
:101C5000027003E0027808239A43027070474171D2
:101C600070470000164817498880012048702320DB
:101C70000870154840782021084313494870002017
:101C800012494862062010490870084640782F2102
:101C90000840202108430C49487000200C49087076
:101CA00000BF09480079102108400028F9D000BF82
:101CB000054800790C2108400028F9D17047000040
:101CC00003E800000020054000400640008004407A
:101CD0000050064000BF0146401E0029FBD170475E
:101CE00010B53848007900F019F937494988374A62
:101CF00050543548408800280AD110460078792889
:101D000006D131484088401C81B22F48418057E0BD
:101D10002D48408801280AD12C484078662806D1F1
:101D200029484088401C81B22748418048E0264825
:101D3000408802280AD125488078012806D1224807
:101D40004088401C81B22048418039E01E484088CC
:101D5000032812D11D48C078032807D003211B484F
:101D6000FEF799FA00211848418029E0164840887A
:101D7000401C81B21448418022E013484088032867
:101D80001BDD11484088062806DA0F484088401CB1
:101D900081B20D48418013E00D48407800280FD1F2
:101DA0000A4908790121FEF771FE07210748FEF76D
:101DB00072FA00210448418002E00021024841807B
:101DC00010BD000000A00640A8F3FF1FA8F2FF1FEF
:101DD00088F0FF1F10B502494868804710BD000019
:101DE000B0F0FF1F10B502498868804710BD0000A1
:101DF000B0F0FF1FFEB504460D4668680190A86864
:101E000000904248844206D14148406901210905B9
:101E100008433F4948613F48844206D13C484069F5
:101E20000121490508433A4948613B48844206D1AB
:101E30003748406901218905084335494861E07800
:101E40000C218843E0702878A07001990A09009954
:101E5000490850180099FEF722FA86B220784709FF
:101E60007F01F004C00E384320706670E8780128C6
:101E700006D100BF207820210843207000BF06E073
:101E800000BF207820218843207000BF00BFA878C1
:101E9000A0716878E0706878C006C00F002821D172
:101EA00068788006C00F00281CD168784006C00FF3
:101EB000002817D16878C009002813D1A8788007B6
:101EC000C00F00280ED1A8784007C00F002809D104
:101ED000A8780007C00F002804D1A878C007C00F59
:101EE000002811D00948844202D10C20FEF766FE7A
:101EF0000848844202D10D20FEF760FE0648844265
:101F000002D10E20FEF75AFEFEBD000000A00640E2
:101F10000080044000B0064000C0064000BF0549F4
:101F20000979202211400029F9D002490979014993
:101F3000C879704700A0064000BF05490979802292
:101F400011400029F9D0024909790149C871704747
:101F500000A0064010B507484078402108430549D5
:101F6000487005480068002802D003490868804787
:101F700010BD00000020054058F0FF1F30B474462B
:101F8000641E2578641CAB4204D3635D5B00E318D8
:101F900030BC18471D46F8E730B587B017480178C0
:101FA0006846017006A8019000216846018105A8D5
:101FB000039001216846018200F064F90546012D75
:101FC00001D107B030BD002408E0684600F05AF99E
:101FD0000546012D00D1F4E7601CC4B2022D01D1E9
:101FE000012000E000200A2C01DA012100E000219C
:101FF00008400028E9D10220E3E700006DF0FF1F50
:1020000001460248C078087001207047BCF0FF1FED
:10201000014602480078087001207047BCF0FF1F9D
:10202000014800787047000060F0FF1F10B50020E5
:102030001E4908801E4908801E480078002834D1B7
:102040001D4A1E4801781E48008800F05FFB0128E9
:102050002BD11948007840001A49085C092816D18C
:1020600015488078810014480079C0221040801102
:1020700008180E4908801048C07881000E48007981
:102080000C22104080100818094908800DE00A4809
:10209000007840000B49085C0F2806D006480078FD
:1020A0004000085C0A2800D000BF10BD70F0FF1F80
:1020B00072F0FF1F6CF0FF1F94F2FF1F64F0FF1F10
:1020C00066F0FF1FCCF0FF1FF0B585B006460C464A
:1020D000002500270020039013488068029019E033
:1020E000EA000298111808226846FEF777F8684659
:1020F0000078B0420CD1012768464079A04207DB46
:10210000684641880079401C6043081880B20390FB
:10211000681CC5B204488079A84201DD002FDFD0D9
:10212000039805B0F0BD0000BCF0FF1FF0B587B00C
:1021300004460020059001900290039004904448CA
:102140000078002801D007B0F0BD42480088069012
:10215000022306AA94214048FFF7A4F80546002D63
:1021600000D0F0E73C48FFF727F83B48FFF724F999
:1021700095213948FFF760F9002201A93648FFF799
:10218000B9F80546002205A93348FFF7B3F805461C
:10219000002D55D16846007D002851DD6846007D40
:1021A000FF284DD00020019002900390049000275A
:1021B00042E000261CE029480078801EB04201D190
:1021C000012000E00020024601A881192248FFF703
:1021D00091F80546002D03D168460079FF2806D105
:1021E0001D48FFF707F91C48FFF700F8ABE7761C1E
:1021F0001A480078401EB042DDD868460079400099
:102200001749085C642816D12178481C6421FEF720
:1022100050F8607881420ED0217806225143A21CEA
:102220008818062201A9FDF7D9FF2178481C6421EE
:10223000FEF73FF821707F1C6846007D8742B8D3C7
:102240000548FFF7D7F80448FEF7D0FF00BF7AE74C
:102250006CF0FF1F68F0FF1F0070064064F0FF1F66
:10226000CCF0FF1F014602484078087001207047FB
:10227000BCF0FF1F014602488078087001207047BB
:10228000BCF0FF1F70B50446012620784000401CBA
:10229000C5B2238A29460448E268FEF7C6FF002833
:1022A00000D00226304670BD0070064070B504466E
:1022B000012620784006050E2389294604486268D5
:1022C000FEF7F0FF002800D00226304670BD000067
:1022D00000700640F0B585B00126002713494A205A
:1022E00000F026F8002800D10127002F01D1002698
:1022F00018E002A8FFF78CFE01A8FFF7B3FF03A8C0
:10230000FFF7B8FF6846FFF77BFEFFF789FE05463B
:10231000012405E004A9204600F074FA601CC4B250
:10232000AC42F7DD304605B0F0BD0000F9250000F5
:10233000F3B5E9B0FF21913101A8FDF7AEFF002709
:10234000FF21913101A8FDF7A8FF9C496998087009
:10235000FFF722FE0546012D02D001206BB0F0BD33
:1023600001209749087065A800F08AF9012801D07A
:102370000120F3E760A8807E322802DD322060A9C8
:102380008876072600208F49086000246DE0E00071
:1023900001A942180121304600F0B8F90546012D87
:1023A00001D00120DAE7701C86B2E00001AA801893
:1023B000811C304600F018FA0546012D01D001209D
:1023C000CCE7B01C86B2E00001A94018021D012133
:1023D000304600F09BF90546012D01D00120BDE7F4
:1023E000701C86B2E00001A94018421D0121304650
:1023F00000F08CF90546012D01D00120AEE7701CDC
:1024000086B2E00001A94018821D0121304600F08B
:102410007DF90546012D01D001209FE7701C86B291
:10242000E00001A940188079E10001AA89184979E2
:10243000484364490968401862490860E00001A9FE
:10244000085C052805D1E000401800795E49087055
:1024500009E0E00001A9085C2C2804D1E000401844
:1024600000795A490870601C84B260A8807EA0423E
:102470008DDC55480078002801D101206EE7072245
:1024800065A95348FDF76EFE01A85149886060A810
:10249000807E06214843C01D679068AA0121679885
:1024A00000F034F90546012D01D0012056E768A857
:1024B0000078474988816799491C88B268AA012138
:1024C00000F024F90546012D01D0012046E74048DF
:1024D000808968A90978090208433D49888167997C
:1024E000891C88B23A4A0E32012100F00FF90546E4
:1024F000012D01D0012031E700210520FFF7E4FD87
:102500003449088008460088002801D1012025E7C9
:1025100000212C20FFF7D8FD2F49088008460088AD
:10252000002801D1012019E700210620FFF7CCFD8A
:102530002A49088008460088002801D101200DE7BB
:1025400020480068642802DD64201E4908600020DD
:102550002349487008700127002425E0E00001A904
:102560004018807900281DD0002014E0009709E071
:102570007A001B4BD2185070E10001AA515C7A001E
:1025800099547F1CE10001AA89188A790099511891
:10259000B942EDDC401CE10001AA89184979814269
:1025A000E4DA00BF601C84B260A8807EA042D5DC63
:1025B00000200349087000BFD0E600006DF0FF1F47
:1025C0006CF0FF1F60F0FF1F64F0FF1F65F0FF1F3E
:1025D000BCF0FF1F66F0FF1F68F0FF1F6AF0FF1FCF
:1025E000CCF0FF1FFEF748F9FDF768FF03E0FEF7A8
:1025F00031F9FFF77DF9FAE710B502461C4800787B
:1026000040001C4B185C092816D1194883780079C2
:10261000C0242040801C83409802000C164B188078
:102620001348C37800790C242040801C8340980311
:10263000000C124B188019E00D48007840000D4B3B
:10264000185C0F2812D00A4800784000185C0A284D
:102650000CD0074800784000185C182806D00448C1
:1026600000784000185C1B2800D000BF10BD00009F
:1026700094F2FF1FCCF0FF1F70F0FF1F72F0FF1FDE
:1026800070B5044622460121002000F03FF80546BF
:10269000012D01D0284670BD621C0121084600F0C2
:1026A00035F80546012D01D02846F4E7A21C01218A
:1026B000022000F02BF80546012D01D02846EAE75C
:1026C000E21C0121032000F021F80546012D01D074
:1026D0002846E0E7221D0121042000F017F80546F6
:1026E000012D01D02846D6E7621D0121052000F00A
:1026F0000DF80546012D01D02846CCE7A21D012189
:10270000062000F003F805462846C4E7F7B586B072
:102710000E4617462E480078002807D06846008BE2
:10272000401C2C490880002029490870294800884D
:102730006946098B884205D16846008B264909887D
:1027400088421ED06846008B224908806846018B6B
:102750000691224801786846017106A8029002217C
:10276000684681811E480068049000216846818285
:1027700001A8FFF79BFD0446012C02D0022009B0FE
:10278000F0BD16480178684601711648006802904D
:102790000021684681810497868201A8FFF772FDB7
:1027A0000446002505E001A8FFF76CFD0446681CFF
:1027B000C5B2022C01D1012000E000200A2D01DA6F
:1027C000012100E0002108400028ECD10120D6E7DB
:1027D0007DF0FF1F76F0FF1F66F0FF1F6DF0FF1FFB
:1027E00084F0FF1F80F0FF1F70B505460C4622469F
:1027F00002212846FFF78AFF0646208820803046BF
:1028000070BD0000024607480068824207DC5000A5
:10281000054BC018407808705000185C70470220C3
:10282000FCE7000060F0FF1FCCF0FF1F000D1FAAA7
:1028300019051816170100005828000000F0FF1FA6
:102840008C00000004010000E42800008CF0FF1F51
:10285000DC09000020010000000000000000000072
:1028600000000000008003400090034000A00340EF
:1028700000000000000000000060064000700640FC
:102880000000000000000000000000000000000048
:102890000090074000A0074000000000000000007A
:1028A0000000000000000000000000000000000028
:1028B0000000000000000000000000000000000018
:1028C0000000000000000000000000000000000008
:1028D000004A4A4A4A0100000000000000000000CF
:0428E0006400000090
:04000005000000C136
:00000001FF
